:020000040800F2
:100000009808002099010008B1100008E10E0008CE
:10001000DD0F0008E90B0008512500080000000072
:1000200000000000000000000000000001010008C6
:10003000ED0B00080000000045010008D91A000877
:10004000B3010008B3010008B3010008B3010008C0
:10005000B3010008B3010008F10B0008B301000868
:10006000B3010008B3010008B3010008B3010008A0
:10007000B3010008B3010008B3010008B301000890
:10008000B3010008B3010008B3010008B301000880
:10009000B3010008B3010008B3010008B301000870
:1000A000B3010008B3010008B3010008B301000860
:1000B000491B00082D1C00084D1C0008B301000856
:1000C000B3010008B3010008B3010008B301000840
:1000D000B301000875210008B3010008A921000838
:1000E000150C0008B3010008B3010008DFF80CD0BC
:1000F00000F020FD00480047ED400008980800206F
:10010000224B19680868B0E8F00F80F30988BFF344
:100110006F8F4FF0000080F311884EF00D0E704786
:100120000000000006480068006880F3088862B696
:1001300061B6BFF34F8FBFF36F8F00DF00BF00BF0B
:1001400008ED00E0EFF30980BFF36F8F0F4B1A68E3
:1001500020E9F00F106008B54FF0500080F31188CF
:10016000BFF34F8FBFF36F8F04F04EFC4FF00000D2
:1001700080F31188BDE8084019680868B0E8F00FFE
:1001800080F30988BFF36F8F704700BFC400002061
:10019000EFF3058070470000064880470648004797
:1001A000FEE7FEE7FEE7FEE7FEE7FEE7FEE7FEE727
:1001B000FEE7FEE7E91A0008ED000008F0B480EA67
:1001C0000102D40F4200B2EB410F02D202460846B0
:1001D00011464A0042D0C30DDDB2C1F3C752AD1A79
:1001E000202D35DAC1F3160141F4000204B1524268
:1001F000C5F1200602FA06F12A411044B3EBD05FA4
:1002000023D0C4B1012DA0EBC35009DCF0BC4FF0EA
:10021000004202EAC352DBB200F5000000F0A3BBCB
:10022000400000F1807000EBC350A0F1807040EA04
:10023000D170490009E0490841EAC071A0EBC35000
:1002400000F50000400800EBC350F0BC00F082BB9A
:100250006142012202EB4101001BF6E7F0BC70474E
:1002600081F00041AAE780F00040A7E780EA0102A0
:1002700010B502F00043400022D04A001FD0010E0A
:1002800001EB1261C0F35600C2F3560240F40000C5
:1002900042F40002A0FB022000047F39140400D0C5
:1002A000401C50EA124001D44000491EC2B20C0664
:1002B00004EBD010401C4008802A02D003E000204C
:1002C00010BD20F00100002900DA0020184310BD05
:1002D00030B480EA010202F0004530F0004221F023
:1002E000004013D090B1C30DD40DC2F31601C0F37A
:1002F0001600E41A41F4000140F400027D349142FA
:1003000001D3641C00E04900002C02DA30BC00205C
:1003100070474FF400000023914201D3891A034330
:1003200040084FEA4101F7D151B1914202D14FF05B
:10033000004105E002D24FF0010101E06FF0010140
:1003400003EBC450284430BC00F004BB2DE9FE4F41
:10035000804681EA0300C00F0C46009021F0004166
:1003600023F00045B8EB0200A94105D240462146E2
:1003700090461C460B46024623F00040104347D0EF
:10038000270DC7F30A00C3F30A510290401A0190E7
:1003900040286BDAC3F3130040F4801B00989246A8
:1003A00020B10023D2EB030A63EB0B0B01985946F3
:1003B000C0F14002504600F09CFA06460D465046F9
:1003C0005946019A00F0B4FA10EB0800614100248C
:1003D00087EA115284EAE7731A4340D0009A62B365
:1003E000019A012A4FEA075215DC001B61EB02015A
:1003F0004FF0004202EA0752CDE90042001C41F5ED
:10040000801132462B4600F0EBFA03B0BDE8F08FC6
:1004100040462146F9E7001B61EB0201001C41F553
:10042000801300185B412018A2F5001747EB030169
:1004300040EAD570B6196D4111E06D084FEA3606F5
:1004400045EAC0754FEA0752001B61EB0201001C30
:1004500041F5801149084FEA3000001951413246F8
:100460002B4603B0BDE8F04F00F0ABBA0098012274
:1004700040000023D0EB020263EBE07300982146BA
:100480004FEAE074B8EB000061EB0401E9E783F0A8
:1004900000435BE781F0004158E72DE9FE4F81EA18
:1004A000030404F0004421F0004100944FF0000BDD
:1004B00023F0004350EA01045ED052EA03045BD00B
:1004C000C3F30A54C1F30A552C44A4F2F334019443
:1004D000A0FB0254C1F3130141F48011C3F31303D1
:1004E00043F4801301FB024400FB034E840A970A85
:1004F00044EA815447EA8357A4FB076802958D0AB2
:1005000005FB07854FEA932C04FB0C542705029D3D
:100510004FEA065847EA1637B5EB08056EEB070CAD
:10052000870E920E47EA811742EA8312A7FB020167
:10053000B6EB0B0164EB00042B0D43EA0C335E18A1
:1005400044EB1C50DA465146E7FB0201C5F31304A5
:100550004FEA0B3343EA14534FEA0432019C43EA57
:100560000603A4F10C040294009CCDE900B400F051
:1005700037FA03B0BDE8F08F00200146F9E72DE916
:10058000F04D81EA030404F0004B21F000451446CD
:100590004FF0000A23F0004150EA050220D054EA4F
:1005A00001021DD0C5F30A570246C5F31303C1F378
:1005B0001300C1F30A5640F4801543F48013A7EBEF
:1005C0000608101BD64608F2FD3873EB050002D36F
:1005D00008F1010801E092185B41B8F1000F03DA5D
:1005E00000200146BDE8F08D00204FF48011064642
:1005F00084460EE0171B73EB050705D3121B63EB54
:10060000050306434CEA010C49084FEA30009218F2
:100610005B4150EA0107EDD152EA030012D082EAB1
:10062000040083EA0501084305D0101BAB4106D244
:100630000122002306E000224FF0004302E06FF0A9
:10064000010253101AEB06004CEB085110EB0A00A4
:1006500041EB0B01BDE8F04D00F0B3B9C10F80EAEA
:10066000E0700844CA079623002100F07CB9962365
:100670000022114600F077B90EB5C10F80EAE07094
:100680000844CA07002140F233438DE80E000A46B1
:100690000B4600F0A5F903B000BD0EB540F23341A2
:1006A00002910021CDE900110A460B4600F098F9AD
:1006B00003B000BD00F0004220F00040C10DC0F3C7
:1006C000160040F400007F2901DA002070479629C7
:1006D00003DCC1F19601C84001E096398840002A48
:1006E000F4D04042704720F00040C10DC0F3160026
:1006F00040F400007F2901DA00207047962903DCCE
:10070000C1F19601C840704796398840704770B56E
:10071000C1F30A5201F000450024C1F3130140F275
:10072000FF3341F480119A4201DA002070BD40F29B
:1007300033439A42A2F2334203DC524200F0E8F81B
:1007400000E090402C43F1D0404270BDC1F30A520A
:1007500010B5C1F3130140F2FF3341F480119A4206
:1007600001DA002010BD40F233439A42A2F2334234
:1007700003DC524200F0CCF810BD904010BD00F0F8
:10078000004230F000400AD0C10D01F56071C0F3A5
:10079000160042EA0151C208400711437047002089
:1007A0000146704730B5041E71F1000404DB4FF0C0
:1007B0000044404264EB0101141E73F1000405DBA8
:1007C0001C464FF00043524263EB04038B4208BFC8
:1007D000824230BD30B5041E71F1000404DB4FF0DD
:1007E0000044404264EB0101141E73F1000405DB78
:1007F0001C464FF00043524263EB0403994208BF8A
:10080000904230BD01F0004330B421F0004150EA85
:10081000010206D00A0DA2F56072C1F31301002A8D
:1008200002DC30BC00207047440F44EAC104C10020
:10083000E01830BC00EBC25000F08CB8002801DB9F
:10084000C0F10040002901DBC1F100418142704745
:10085000002801DBC0F10040002901DBC1F10041AB
:100860008842704730B50B46014600202022012403
:1008700009E021FA02F59D4205D303FA02F5491B6E
:1008800004FA02F52844151EA2F10102F1DC30BD84
:100890002DE9F05F0546002092469B4688460646B5
:1008A000814640241BE0284641464746224600F048
:1008B0002FF853465A46C01A914110D31146184694
:1008C000224600F016F82D1A67EB01084F46224623
:1008D0000120002100F00DF817EB00094E41201E09
:1008E000A4F10104DFDC484631462A464346BDE810
:1008F000F09F202A04DB203A00FA02F10020704722
:100900009140C2F1200320FA03F31943904070474D
:10091000202A04DB203A21FA02F00021704721FA54
:1009200002F3D040C2F120029140084319467047BB
:10093000202A06DBCB17203A41FA02F043EAE073A3
:1009400006E041FA02F3D040C2F120029140084390
:10095000194670470029A8BF7047401C490008BFCE
:1009600020F00100704710B4B0FA80FC00FA0CF0DF
:1009700050EA010404BF10BC704749B1CCF1200417
:1009800021FA04F411FA0CF118BF012121430843A4
:10099000A3EB0C01CB1D4FEA00614FEA102042BFD0
:1009A000002010BC704700EBC35010440029A4BFC6
:1009B00010BC7047401C490008BF20F0010010BC6B
:1009C000704710B5141E73F1000408DA401C41F1A1
:1009D000000192185B411A4301D120F0010010BDC3
:1009E0002DE9F04D92469B4611B1B1FA81F202E039
:1009F000B0FA80F220329046FFF77BFF04460F46A4
:100A000040EA0A0041EA0B0153465A46084313D014
:100A1000114653EA010019D0C8F140025046FFF7D1
:100A200077FF05460E46504659464246FFF761FF9E
:100A3000084305D0012004E020463946BDE8F08D8A
:100A40000020054346EAE0762C4337430A986305C5
:100A5000E40AA0EB08000022FD0A44EA47540A30E9
:100A600002D500200146E9E7010510196941DDE9D9
:100A7000084500196941BDE8F04DA2E72DE9FE4F98
:100A8000C3F30A5701F000450024C1F30A56C3F32B
:100A90001303C1F3130143F4801312EB020AA646B9
:100AA00041F48011009543EB030CA7F1010B16E014
:100AB000B0EB0A0061EB0C01071E71F1000707DAC9
:100AC0004FF00008D0EB080085F0004568EB01010D
:100AD000171A73EB0107EBD3761E001849415E45E8
:100AE000F6DA50EA010209D0CDE900E5002213460A
:100AF0000296FFF775FF03B0BDE8F08F204600991E
:100B0000F9E7C1F30A52C1F3130140F2FF3341F494
:100B100080119A4202DA00200146704740F23343C6
:100B20009A42A2F2334202DC5242FFF7F1BEFFF7D3
:100B3000E0BE0000064C074D06E0E06840F001030F
:100B400094E8070098471034AC42F6D3FFF7D2FA86
:100B5000A85F0008C85F000870B521F00043034398
:100B60000CD0C1F30A550024D5EB040564EB040353
:100B7000D617AD1AB34102DB0020014670BD201824
:100B800041EB025170BD70B58C1810F8015B15F087
:100B9000070301D110F8013B2A1106D110F8012BEF
:100BA00003E010F8016B01F8016B5B1EF9D12B0714
:100BB00005D40023521E0DD401F8013BFAE710F8CA
:100BC000013BCB1A921C03E013F8015B01F8015BB7
:100BD000521EF9D5A142D8D3002070BD10B50446ED
:100BE000204603F076F910BD00BFFEE77047000015
:100BF00010B5012000F02AF830B101200449086046
:100C00002020086002200860012000F019F810BDC3
:100C1000140C014010B54FF4005000F017F838B133
:100C20000120064908602020091F08600220086092
:100C30004FF4005000F004F810BD0000140C014007
:100C4000014908607047000014040140014600207B
:100C50000022074B1B6803EA0102054B14331B6893
:100C60000B4013B10AB1012000E0002070470000E2
:100C70000004014070B501F033FB00F009FB00F007
:100C800075FF28480068FFF7A9FF4821B1F1807F70
:100C900000D31DE021F07F40401E4FF0E022506164
:100CA00050170F22002807DA13071D0E1E4B00F005
:100CB0000F04241F1D5503E013071C0E1B4B1C546F
:100CC00000BF00204FF0E02290610720106100BFBC
:100CD0001448006800F066F91548164908600720B6
:100CE00015490860154816490860164816490860F5
:100CF0001648174908600020164908700220164956
:100D0000087016481649086000F06AF9054800683E
:100D100000F09EF900F05CFC12A001F031FC00F044
:100D2000CFFE70BD6C00002018ED00E000E400E094
:100D30000000404108010020140100200000C040D4
:100D40000C0100200000A0411C01002000002040F8
:100D5000100100204801002049010020000020412E
:100D60001C0000204D6F746F722072656164792ED3
:100D70000D0A000008B54FF48060ADF800001020A7
:100D80008DF8030001208DF802006946044800F048
:100D900009F84FF48061024800F098F808BD00009F
:100DA000000C01402DE9F0410246002500260020FC
:100DB00000230024002791F803C00CF00F0591F8E0
:100DC00003C00CF0100CBCF1000F03D091F802C06E
:100DD0004CEA050591F800C0BCF1000F31D0146851
:100DE00000202BE04FF0010C0CFA00F3B1F800C02A
:100DF0000CEA03069E4220D183004FF00F0C0CFA40
:100E000003F7BC4305FA03FC4CEA040491F803C061
:100E1000BCF1280F06D14FF0010C0CFA00FCC2F80F
:100E200014C00AE091F803C0BCF1480F05D14FF09F
:100E3000010C0CFA00FCC2F810C0401C0828D1D3E9
:100E40001460B1F800C0BCF1FF0F34DD546800201D
:100E50002EE000F1080C4FF0010808FA0CF3B1F88D
:100E600000C00CEA03069E4221D183004FF00F0C14
:100E70000CFA03F7BC4305FA03FC4CEA040491F8AE
:100E800003C0BCF1280F05D100F1080C08FA0CF8DA
:100E9000C2F8148091F803C0BCF1480F07D100F1EB
:100EA000080C4FF0010808FA0CF8C2F81080401C3A
:100EB0000828CED35460BDE8F08102460020936834
:100EC0000B400BB1012000E00020704741617047EA
:100ED000016170470AB1016100E0416170470000A3
:100EE00002A001F04DFB00BFFEE70000B3F6CFD635
:100EF000D3B2BCFEB4EDCEF30000000010B5044642
:100F0000A189A068FFF7E2FF10BD10B50446A189D2
:100F1000A068FFF7DDFF10BD10B50446A18820686A
:100F2000FFF7D4FF10BD10B50446A1882068FFF775
:100F3000CFFF10BD10B50446A1882068FFF7BDFFA4
:100F400010BD00002DE9FC5F83465846FFF717FCF3
:100F500007460F4A0F4BFFF7A0FA81468A460E4814
:100F60000068FFF70CFC07460C4A0D4BFFF795FA9B
:100F70004A465346CDE90001FFF7E8F90546FFF779
:100F800041FC0446044804602046BDE8FC9F000084
:100F90009A9999999999B93F54010020CDCCCCCC1C
:100FA000CCCCEC3F10B504464FF4805006490860A5
:100FB0000648006803F03AF9054908600020054931
:100FC00008600549086010BD580100206C00002031
:100FD000600100205C0100206401002000BFFEE7EA
:100FE00010B50EA001F0CCFAFFF7C4FE0E48016860
:100FF0000E480068FFF72CFC03D20B4800680B4931
:10100000086000200A4908604FF400710948FFF7A2
:101010005FFF09A001F0B4FA10BD00004D4F543A33
:1010200020496E69740D0A000C0100201001002097
:1010300004010020000C01404D4F543A20456E61E0
:10104000626C65206472697665722E0D0A0000007C
:1010500010B50446204602F021F9204602F01EFE9B
:101060000E490860052002F069FD204603F062FB8E
:101070000B490860052002F061FD204603F03EFBAD
:101080000849086008480078022803D1084600682B
:1010900006490860C82002F051FD10BD680100201B
:1010A0002801002020010020490100201C00002010
:1010B000704708B54FF4A06000F046F825208DF881
:1010C000000001208DF801008DF802008DF803006A
:1010D000684600F001F808BD70B5002100230F221A
:1010E000C47804B3154C246804F4E064C4F5E064E7
:1010F000210AC1F10403CA40447804FA03F1847858
:101100001440214309010E4C0678A155047804F0DF
:101110001F050124AC4005786D11AD0005F1E025F7
:10112000C5F8004109E0047804F01F050124AC4033
:10113000044D0678761145F8264070BD0CED00E0B0
:1011400000E400E080E100E002490143024A11604E
:10115000704700000000FA050CED00E070B50024B7
:101160000EE00021204600F0F4F8002504E0002005
:1011700000F096F9681CC5B2802DF8DB601CC4B283
:10118000082CEEDB70BD000008B50121082000F03E
:101190007FFB14208DF8030003208DF802004FF42C
:1011A0008070ADF8000069460A48FFF7FBFD4FF478
:1011B0000070ADF8000069460648FFF7F3FD012214
:1011C00011020448FFF786FE012251020148FFF791
:1011D00081FE08BD000C014070B50546002419E0F1
:1011E00080202041284008B1012000E00020024674
:1011F0004FF400710E48FFF76DFE012211020C48FA
:10120000FFF768FE00224FF480710948FFF762FE85
:10121000601CC4B2082CE3DB012211020448FFF772
:1012200059FE00224FF480710148FFF753FE70BD54
:10123000000C014010B5012251020A48FFF74AFE96
:10124000012211020748FFF745FE00224FF400710A
:101250000448FFF73FFE00224FF480710148FFF77A
:1012600039FE10BD000C014010B500224FF4007192
:101270000648FFF72FFE012211020448FFF72AFE5D
:10128000012251020148FFF725FE10BD000C01406C
:1012900070B5002406E0002500E06D1CB5F57A7FEE
:1012A000FBD3641CB4F57A7FF5D3FFF76DFFAE2056
:1012B00000F0E6F8D52000F0E3F8802000F0E0F838
:1012C000A82000F0DDF83F2000F0DAF8D32000F08D
:1012D000D7F8002000F0D4F8402000F0D1F8A12089
:1012E00000F0CEF8C82000F0CBF8DA2000F0C8F803
:1012F000122000F0C5F8812000F0C2F8CF2000F0E5
:10130000BFF8D92000F0BCF8F12000F0B9F8DB20DC
:1013100000F0B6F8302000F0B3F8A42000F0B0F8E8
:10132000A62000F0ADF88D2000F0AAF8142000F0FF
:10133000A7F8AF2000F0A4F8FFF710FF70BD10B5BC
:101340000246012000E050430B1EA1F10101FAD139
:1013500010BD70B505460C4645F0B00000F090F8A1
:10136000102141EA141000F08BF804F00F0000F097
:1013700087F870BD2DE9F04105460E461746721EEE
:10138000D206110E6A1E5206100EFFF7E2FF00246D
:1013900009E0A7F12001134A02EB0111085D00F0FA
:1013A0007FF8601CC4B2082CF3DB721ED206110E4B
:1013B0006A1E012303EB4202D0B2FFF7CAFF0024EA
:1013C0000BE0A7F12001074A02EB011204F108012A
:1013D000505C00F065F8601CC4B2082CF1DBBDE87D
:1013E000F0810000F45500082DE9F04781460E46D3
:1013F00090461F4600241DE0381B411E1020FFF7B9
:101400009EFFB8FBF0F000F00F050A2D08DA05F199
:101410003000C2B23019C1B24846FFF7ABFF07E057
:1014200005F13700C2B23019C1B24846FFF7A2FF3A
:10143000601CC4B2BC42DFDBBDE8F0872DE9F04799
:1014400080460E4617461D46002415E0281B411E07
:101450000A20FFF774FFB7FBF0F00A21B0FBF1F2AE
:1014600001FB120000F130093019C1B24A46404672
:10147000FFF780FF601CC4B2AC42E7DBBDE8F08739
:1014800010B50446FFF7D6FE7820FFF7A5FE002032
:10149000FFF7A2FE2046FFF79FFEFFF7E5FE10BD17
:1014A00010B50446FFF7C6FE7820FFF795FE4020F2
:1014B000FFF792FE2046FFF78FFEFFF7D5FE10BD27
:1014C0002DE9F05F81464FF0E020846937480068DD
:1014D00084420ED235490968081BFFF7C8F88046D8
:1014E0003349FEF7F5FE07463249FEF7BFFE0546D3
:1014F00010E06FF07F41091B2C4A12688818FFF733
:10150000B6F880462A49FEF7E3FE07462949FEF76A
:10151000ADFE05462548046000212846FFF78EF9F8
:1015200008D02846FFF72BF907460022224BFFF789
:1015300051F900D2214D224801684846FEF796FE37
:101540008346204801684846FEF78AFE80461E48CA
:1015500001684046FEF78AFE07462946FEF7B8FEB8
:10156000824651465846FEF729FE0646174800684F
:1015700080F0004731463846FFF76AF904D2134835
:10158000006880F0004009E0104801683046FFF72D
:101590005FF902D20D48006800E03046064609486F
:1015A000C0F800903046BDE8F09F00009401002094
:1015B00000001041BD3786350000E03F6F12833ACE
:1015C0007001002084010020780100201C0100200F
:1015D00012481349086080071249086012481349ED
:1015E000086000201249086012490860124908602A
:1015F0004FF0E020806911490860114811490860E6
:101600004FF07C50104908600020104908604FF0EE
:10161000E02080690E49086070470000CDCCCC3DC9
:101620006C010020740100200000C84288010020E5
:101630007C010020800100208C010020900100200E
:10164000000020417001002078010020840100206A
:10165000940100202DE9F04F8DB083464FF0E0203B
:1016600084696F48006884420ED26D490968081B7E
:10167000FEF7FDFF80466B49FEF72AFE07466A49E2
:10168000FEF7F4FD054610E06FF07F41091B644A48
:1016900012688818FEF7EBFF80466249FEF718FED5
:1016A00007466149FEF7E2FD05465D4804600021FA
:1016B0002846FFF7C3F808D02846FFF760F807462A
:1016C00000225A4BFFF786F800D2594D594801685D
:1016D0005846FEF7CBFD0C90574801685846FEF778
:1016E0006DFD0746FFF74BF8CDE904012946534845
:1016F0000068FEF7BBFD0190FFF741F807460022A6
:101700004A4BFEF7CAFECDE90201DDE90423FEF7EC
:10171000C4FECDE908014A480068FFF730F8CDE97A
:101720000601DDE90823FEF711FECDE90A01FFF706
:1017300069F806464348006880F00047314638465D
:10174000FFF786F804D23F48006880F0004009E0C7
:101750003C4801683046FFF77BF802D23948006800
:1017600000E03046064631460C98FEF727FD8146DC
:101770003448006880F0004749463846FFF768F86B
:1017800004D23048006880F0004009E02D4801682C
:101790004846FFF75DF802D22A48006800E0484654
:1017A0008146294801684846FEF75AFD0746294602
:1017B000FEF78EFD8246254801685046FFF748F83F
:1017C0000CD2294621480068FEF750FD07461E4806
:1017D00001683846FEF7F2FC814614E01B480068B9
:1017E00080F0004751463846FFF732F80BD22946C1
:1017F00016480068FEF73AFD074613480168384668
:10180000FEF731FD81460E4806600F48C0F8009093
:101810000948C0F800B048460DB0BDE8F08F0000A0
:101820009001002000001041BD3786350000E03FE8
:101830006F12833A6C0100208001002074010020A7
:101840007C0100200C0100208C0100208801002078
:1018500029B1064AD2690243044BDA6104E0034A23
:10186000D2698243014BDA617047000000100240E8
:1018700029B1064A12690243044B1A6104E0034A83
:1018800012698243014B1A61704700000010024048
:1018900029B1064A92690243044B9A6104E0034A63
:1018A00092698243014B9A61704700000010024028
:1018B00029B1064AD2680243044BDA6004E0034AC5
:1018C000D2688243014BDA6070470000001002408A
:1018D00030B500210022002400232D4D6D6805F055
:1018E0000C0121B1042905D0082923D105E0294D97
:1018F000056022E0274D05601FE0254D6D6805F469
:101900007012234D6D6805F48034022505EB924278
:101910001CB9214D554305600BE01D4D6D6805F464
:1019200000351DB11C4D5543056002E0194D55436E
:10193000056002E0174D056000BF00BF144D6D68E3
:1019400005F0F0010909154D6B5C0568DD40456047
:101950000F4D6D6805F4E061090A104D6B5C456838
:10196000DD4085600A4D6D6805F46051C90A0B4D74
:101970006B5C4568DD40C560054D6D6805F4404110
:10198000890B074D6B5CC568B5FBF3F5056130BD90
:101990000010024000127A0000093D000000002003
:1019A0001000002010B5084803780848B0F900205E
:1019B0000748B0F900100748B0F9000002F0CCFF6A
:1019C0000D2002F0BBF810BD8E0000208C0000201E
:1019D0008A0000208800002010B500F001F810BD3A
:1019E0000CB50020019000903348006840F480302E
:1019F0003149086000BF3048006800F400300090B2
:101A00000198401C0190009818B90198B0F5A06F9A
:101A1000F1D12948006800F4003010B10120009095
:101A200001E0002000900098012843D1234800687D
:101A300040F01000214908600846006820F00300CB
:101A400008600846006840F0020008601A484068D4
:101A5000194948600846406848600846406840F4B4
:101A6000806048600846406820F47C104860084662
:101A7000406840F4E81048600846006840F0807014
:101A8000086000BF0C48006800F000700028F9D022
:101A90000948406820F0030007494860084640684C
:101AA00040F00200486000BF0348406800F00C00AE
:101AB0000828F9D10CBD00000010024000200240AF
:101AC00004484FF0E021486100208861012008614E
:101AD00070470000FEFFFF0010B503F081F80128F9
:101AE00001D003F063F810BD10B51348006840F052
:101AF00001001149086008464068104908400E4935
:101B00004860084600680E4908400B4908600846CE
:101B1000006820F4802008600846406820F4FE0039
:101B200048604FF41F008860FFF756FF4FF00060D9
:101B30000449086010BD0000001002400000FFF8DA
:101B4000FFFFF6FE08ED00E010B50121880700F068
:101B5000A1F940B104480088401C034908800121D4
:101B6000880700F093F810BD1600002000B589B07A
:101B700001210420FFF78CFE01210846FFF768FED3
:101B80000E20ADF8200018208DF8230003208DF8DA
:101B9000220008A92448FFF705F94FF0804000F023
:101BA00085F80020ADF8140040F29F50ADF8180001
:101BB0002020ADF816000020ADF81A0005A94FF05E
:101BC000804000F085FA6020ADF804000120ADF8F7
:101BD00006000020ADF80A00ADF80C0001A94FF096
:101BE000804000F069F901A94FF0804000F0C4F98D
:101BF00001A94FF0804000F019FA0821C80600F052
:101C0000ADF90821C80600F007FA0821C80600F05F
:101C10004BFA0121880700F02DF80121880700F018
:101C200038F809B000BD00000008014010B50121DE
:101C3000054800F02FF9012805D1012401210248AF
:101C400000F024F800BF10BD0004004010B50121D1
:101C5000064800F01FF940B10121044800F016F8D1
:101C600003480068401C0249086010BD000800409D
:101C70002400002021B1028842F08002028004E0AA
:101C800002884FF67F731A4002807047CA4302826F
:101C9000704721B1028842F00102028004E002880C
:101CA0004FF6FE731A4002807047000010B50446DC
:101CB0006848844208D10121C014FFF7F9FD0021D2
:101CC000E014FFF7F5FDC4E0B4F1804F08D1012125
:101CD0000846FFF7CDFD00210120FFF7C9FDB8E060
:101CE0005D48844208D101210220FFF7C1FD002197
:101CF0000220FFF7BDFDACE05848844208D1012125
:101D00000420FFF7B5FD00210420FFF7B1FDA0E09E
:101D10005348844208D101210820FFF7A9FD002182
:101D20000820FFF7A5FD94E04E48844208D1012128
:101D30001020FFF79DFD00211020FFF799FD88E09E
:101D40004948844208D101212020FFF791FD00215C
:101D50002020FFF78DFD7CE04448844208D101211A
:101D60004014FFF7A5FD00216014FFF7A1FD70E00E
:101D70003F48844209D10121C804FFF799FD0021A1
:101D80004FF40020FFF794FD63E03A48844209D104
:101D900001210805FFF78CFD00214FF48010FFF7AB
:101DA00087FD56E03448844209D101214805FFF7F8
:101DB0007FFD00214FF40010FFF77AFD49E02F4826
:101DC000844208D101214020FFF752FD002140202C
:101DD000FFF74EFD3DE02A48844208D101218020D2
:101DE000FFF746FD00218020FFF742FD31E0254846
:101DF000844208D101218015FFF73AFD0021A0158A
:101E0000FFF736FD25E02048844209D1012108046E
:101E1000FFF74EFD00214FF48030FFF749FD18E039
:101E20001A48844209D101214804FFF741FD0021ED
:101E30004FF40030FFF73CFD0BE01548844208D119
:101E400001218804FFF734FD00214FF48020FFF7C3
:101E50002FFD10BD002C0140000400400008004090
:101E6000000C00400010004000140040003401400D
:101E7000004C014000500140005401400018004057
:101E8000001C004000200040004001400044014090
:101E90000048014030B50246002000230024158A86
:101EA00005EA0103958905EA010413B10CB101208B
:101EB00000E0002030BD000070B5002400220023A7
:101EC000058C4FF6EF7635400584028C8388048BB1
:101ED00048F6FF752C404FF6FF452C400D884FF615
:101EE000FF7606EA05252C434FF6DF752A400D895B
:101EF00006EA05152A434D8806EA05152A43154DBD
:101F0000A84202D0144DA8421DD14FF67F752A4039
:101F10004D894FF6FF7606EA05152A434FF6BF7541
:101F20002A408D8806EA05152A434FF6FF352B40D7
:101F30004FF2FF752B408D8906EA85052B43CD892D
:101F400006EA85052B4383800483CD8805870284B8
:101F500070BD0000002C0140003401400A46002101
:101F6000018B4FF2FF7319404FF6FF7303EA022310
:101F7000194301837047000070B50024002200233C
:101F8000058C4FF6FF6635400584028C8388848B70
:101F90004FF68F752C404FF6FC752C400D882C4366
:101FA0004FF6FF552A400D894FF6FF7606EA0525C4
:101FB0002A434D8806EA05252A43154DA84202D03A
:101FC000144DA8421DD14FF2FF752A404D894FF69E
:101FD000FF7606EA05252A434FF6FF352A408D880D
:101FE00006EA05252A434EF6FF752B404DF6FF7590
:101FF0002B408D8906EA05152B43CD8906EA051588
:102000002B4383808483CD888587028470BD000044
:10201000002C0140003401400A460021818B4FF61C
:10202000F7731940114381837047000070B5002297
:1020300000230024058C4EF6FF7635400584038C82
:102040008488828B48F6FF752A404FF6FF452A4068
:102050000D884FF6FF7606EA05252A434DF6FF75F3
:102060002B400D8906EA05352B434D8806EA0535D8
:102070002B430B4DA84202D00A4DA84208D14BF683
:10208000FF752C408D894FF6FF7606EA85152C43A7
:1020900084808283CD88A0F84050038470BD000006
:1020A000002C0140003401400A460021818B4FF290
:1020B000FF7319404FF6FF7303EA0223194381832C
:1020C00070470187704781877047A0F840107047BC
:1020D000002202881D4B98420ED01D4B98420BD017
:1020E000B0F1804F08D01B4B984205D01A4B984254
:1020F00002D01A4B984204D14FF68F731A404B8886
:102100001A43174B984207D0164B984204D04FF60B
:10211000FF431A40CB881A4302808B8883850B8843
:1021200003850A4B98420BD0094B984208D00E4BBE
:10213000984205D00D4B984202D00D4B984201D1E8
:102140000B7A03860123838270470000002C014034
:10215000003401400004004000080040000C004032
:1021600000100040001400400040014000440140C5
:102170000048014010B540F22551074800F005F92C
:1021800048B140F22551044800F08EF8034A044952
:10219000044802F0E5FA10BD003801409800002024
:1021A00094000020900000202DE9F04140F22551DC
:1021B0002A4800F0EAF800284DD040F2255127487F
:1021C00000F072F8254800F09BF92549087025A118
:1021D000224800F0BFF9224800783238072834D26C
:1021E000DFE800F004332232313313001E48006868
:1021F000FEF7C5FA06461D4A1D4BFEF7A7F8044632
:10220000FEF700FB1849086024E01A480068FEF752
:10221000B6FA0646184A194BFEF798F80446FEF738
:10222000F1FA1449086015E015480068FEF7A7FAAE
:102230000646114A114BFEF789F80446FEF7E2FA0A
:102240000F49086006E005E004E00EA1034800F035
:1022500081F900BF00BFBDE8F081000000480040E8
:10226000B400002050000000B80000209A9999990D
:102270009999B93FBC0000207B14AE47E17A843FB6
:10228000C0000020506C6561736520696E707574C4
:1022900020636F727265637420696E737472756304
:1022A00074696F6E7300000010B50022002340F6C1
:1022B0006A14A14200D100BF0A1201249440A3B2C3
:1022C000DC43048010BD21B1828942F40052828136
:1022D00004E082894DF6FF731A4082817047000046
:1022E00000B585B001210420FFF7D2FA012188034F
:1022F000FFF7CEFA4FF40070ADF8100018208DF8FB
:10230000130003208DF8120004A91748FEF74AFDB8
:102310004FF48060ADF8100004208DF8130004A97C
:102320001148FEF73FFD4FF4E13000900020ADF87A
:102330000400ADF80600ADF80800ADF80C000C2064
:10234000ADF80A006946094800F06EF8FEF7B1FEE4
:10235000012240F22551054800F041F801210348CF
:10236000FFF7B1FF05B000BD000801400038014093
:1023700002460020B1F5007F00D100BF13880B405A
:102380000BB1012000E00020704770B50246002428
:1023900000230025002040F66A16B14200D100BF9C
:1023A000C1F3421501F01F03012606FA03F3012DC4
:1023B00002D19689334006E0022D02D1168A3340BD
:1023C00001E0968A33400C12012606FA04F41688BE
:1023D000344013B10CB1012000E0002070BDF0B515
:1023E0000346002400260025002040F66A17B94263
:1023F00000D100BF1846C1F3421401F01F060127A7
:1024000007FA06F5012C01D10C3004E0022C01D1B1
:10241000103000E014301AB107682F43076002E063
:102420000768AF430760F0BD2DE9F04786B0054669
:102430000E460024A24600BFA1460027B08900B185
:1024400000BF2F462C8A4CF6FF700440F0880443EE
:102450002C82AC894EF6F3100440B08831890843D1
:10246000718908430443AC81AC8A4FF6FF400440B5
:10247000B0890443AC8201A8FFF72AFA1F488742BB
:1024800002D1DDF810A001E0DDF80CA0A88900F46D
:10249000004040B10AEBCA0000EB0A103168490065
:1024A000B0FBF1F807E00AEBCA0000EB0A10316854
:1024B0008900B0FBF1F86420B8FBF0F004012009BA
:1024C000642101FB1089A88900F4004040B132204A
:1024D00000EBC900B0FBF1F000F00700044308E096
:1024E000322000EB09106421B0FBF1F000F00F0086
:1024F00004432C8106B0BDE8F0870000003801409D
:1025000001468888C0F308007047C1F30802828042
:102510007047000010E000BF0B4A128802F08002F2
:10252000002AF9D00278084B1B1D1A80401C074A6C
:102530001268521C054B1A60044A12688A42EADB90
:102540000022024B1A60704700380140B0000020A2
:1025500000BFFEE770B506460C46002500BF615D72
:102560003046FFF7D2FF681CC5B2605D0028F6D187
:1025700000BF40213046FFF7FBFE0028F9D070BDB8
:102580000FB4054B10B503A9044A029800F092F964
:1025900010BC5DF814FB0000793C00089801002095
:1025A000490050EAC12018BF04204A0D18BF40F06E
:1025B000010040F2FF72B2EB515F08BF40F0020031
:1025C000012808BF052070472DE9F0414F1E00EBA0
:1025D000C7010446D1E9000115461E4637F0060240
:1025E0000DD02A463346FDF758FF7F1E04EBC70384
:1025F000D3E90023FDF7AAFE37F00602F1D1022F3E
:1026000025D0042F13D0062F18BFBDE8F0812A462D
:102610003346FDF742FFD4E90A23FDF797FE2A4629
:102620003346FDF73AFFD4E90823FDF78FFE2A462B
:102630003346FDF732FFD4E90623FDF787FE2A462D
:102640003346FDF72AFFD4E90423FDF77FFE2A462F
:102650003346FDF722FFD4E90223FDF777FE2A4631
:102660003346FDF71AFFD4E90023BDE8F041FDF73A
:102670006DBE0122FEF770BAFDF768BE0022134658
:1026800010461146FDF77BBF024A00201107FEF7F6
:1026900063BA000001FDFFFF02E008C8121F08C175
:1026A000002AFAD170477047002001E001C1121FD3
:1026B000002AFBD170470000014908607047000004
:1026C0009C01002070B504460D462846FDF7C6FF64
:1026D00006462146FDF7CAFD70BD00002DE9FF5FEB
:1026E00082B00021DDE90430020DDDF840B0034383
:1026F00018D044F61050A2F2FF324243151411983C
:1027000001281FD0A5EB0B00401C5FEA000A4FF028
:1027100000064E4FDFF83891B046504615D5CAF145
:10272000000413E0119801244AA3012801D16FEAA3
:102730000B010298119AC0E90031C0E9024206B0CB
:10274000BDE8F09FCBF10000DFE704460021404ADE
:10275000491842EB0450CDE9001012E0E00707D021
:1027600032463B4640464946FDF797FE804689463D
:1027700032463B4610461946FDF78FFE06460F4689
:102780006410002CEAD1DDE90401DDE90023BAF18F
:10279000000F06DAFDF781FE42464B46FDF77DFE4F
:1027A00005E0FDF7ECFE42464B46FDF7E8FE044629
:1027B0000E460022284BFEF70DF803D84FF0FF30ED
:1027C000014607E00022254B20463146FDF7BEFDBD
:1027D000FEF797F9102409E0002C0ADB0A220023F7
:1027E000FEF756F8039B30321A55641E50EA010278
:1027F000F2D1641C039AC4F111031444119A012A02
:1028000003D0012208430DD10AE0084304D0002080
:102810004FF0110B119072E7A3EB0B056D1E0DE04D
:102820005B4504DD4FF0000205F1010504E003DA29
:102830004FF00002A5F10105002AECD00298119991
:10284000C0E90231C0E9004579E70000000014400A
:102850000000F03F300000000000F0430000E03FC7
:102860002DE9F04706463046FDF789FF07460F4A37
:102870000F4B01F0B7F90446FDF7C4FF8146002174
:102880004846FDF7E5FF03D84846FDF778FF07E027
:102890004846FDF774FF0746044A054BFDF756FD11
:1028A0000446FDF7AFFFBDE8F0870000EA2E445470
:1028B000FB2119402DE9FF4F95B09B4689460646FE
:1028C00000250FE2252877D100242746F84A012168
:1028D000059400E0044316F8013F203B01FA03F0A1
:1028E0001042F7D130782A2811D06FF02F033078BA
:1028F000A0F13002092A16D8059A44F0020402EB2E
:10290000820203EB42021044761C0590EFE759F86F
:10291000042B0592002A03DA504244F40054059037
:1029200044F00204761C30782E2816D116F8010FD8
:1029300044F004042A280DD06FF02F023078A0F163
:102940003003092B09D807EB870302EB4303C718B1
:10295000761CF3E759F8047B761C30786C280FD08E
:1029600006DC4C2817D068280DD06A2814D104E062
:10297000742810D07A280FD10DE044F400140AE036
:1029800044F4801401E044F440147278824202D18D
:1029900004F58014761C761C307866280BD013DC86
:1029A000582877D009DC002875D04528F6D046286D
:1029B000F4D047281AD19DE118E0632835D0642867
:1029C00079D0652812D195E1702873D008DC67288A
:1029D000F1D069286FD06E280DD06F2806D1B5E0F0
:1029E00073282CD0752875D0782874D05A4617993A
:1029F00090476D1C75E1C4F30250022809D00328EA
:102A00000DD0D9F8001004280DD00D6009F104098B
:102A100067E1D9F80010EA17C1E90052F6E7D9F8E2
:102A200000100D80F2E70D70F0E719F8041B8DF827
:102A3000001000208DF80100EA46012003E059F85B
:102A400004AB4FF0FF3061074FF0000102D40DE0FE
:102A500008F101018846B9420FDA8045F8DB1AF81F
:102A600008100029F4D108E008F1010188468142EC
:102A7000FADB1AF808100029F6D105985B46A0EB9E
:102A8000080721463846179A00F094FA284400EBCC
:102A9000080507E04DE029E10DE01AF8010B5A4660
:102AA00017999047B8F10108F7D25B46214638469E
:102AB000179A13E142E00A220092C4F302524FF047
:102AC000000A022A08D059F804CB032A4FEAEC7115
:102AD0000AD00DE029E02AE009F1070121F0070200
:102AE000F2E802C1914609E00FFA8CFC4FEAEC7162
:102AF000042A03D14FFA8CFC4FEAEC71002907DA63
:102B00000A460021DCF1000C61EB02012D2202E0FB
:102B1000220504D52B228DF80420012203E0E207D0
:102B200001D02022F7E7904659E00A2102E0102266
:102B30000DE010214FF0000A00910BE010224FF041
:102B4000000A44F004040827009203E008224FF032
:102B5000000A0092C4F30252022A05D059F804CBAD
:102B60000021032A08D009E009F1070121F007023A
:102B7000F2E802C1914605E01FFA8CFC042A01D15B
:102B80000CF0FF0C4FF00008220728D5702806D063
:102B9000009B83F0100353EA0A0305D00EE04022A5
:102BA0008DF80420012208E05CEA010206D0302200
:102BB0008DF804208DF8050002229046009B83F0DA
:102BC000080353EA0A030AD15CEA010201D1620751
:102BD00005D530228DF804204FF001087F1E5828BB
:102BE00004D034A003900EA802900DE036A0F9E7BF
:102BF00053466046009AFDF74BFE84460398825C7C
:102C00000298401E029002705CEA0100F0D1029826
:102C100006A9081A00F1200A600702D524F48034BE
:102C200000E00127574502DDA7EB0A0000E0002085
:102C300000EB0A01009005984144401A0590E0031A
:102C400006D45B462146179A059800F0B3F905446F
:102C5000002706E001A85A46C05D179990476D1CF1
:102C60007F1C4745F6DBE0030CD55B462146179AEF
:102C7000059800F09FF9054404E030205A46179962
:102C800090476D1C0099481E00900029F5DC08E073
:102C9000029802995A460078491C02911799904768
:102CA0006D1CBAF10001AAF1010AF1DC65E1000036
:102CB0000928010030313233343536373839616212
:102CC00063646566000000003031323334353637D6
:102CD00038394142434445460000000000F058F9AD
:102CE0000544761C307800287FF4ECAD19B02846F6
:102CF000BDE8F08F620700D4062709F1070222F031
:102D0000070CFCE80223E14603F000485FEA080CE8
:102D100002D00FF2702C0DE05FEA045C02D50FF2D6
:102D2000682C07E05FEAC47C02D00FF2602C01E05F
:102D3000AFF2700C4FF0FF3823F00043CDF850C0D5
:102D400065280CD006DC452809D046281DD0472828
:102D50003DD13DE0662818D067287ED138E00021BB
:102D6000112F01DB112000E0781CCDE9000106A93C
:102D70000EA8FFF7B3FCDDE90F010E9A03910021C5
:102D8000009207F1010A04914DE04FF000400097D6
:102D9000CDE9011006A90EA8FFF7A0FCDDE90F029E
:102DA00003920E9B11990022DDF80CA0009304926F
:102DB00011B9791C00EB010AB7EB0A0004D4C0F189
:102DC000FF3007F1010A0490AAEB0700019044E0EC
:102DD000012F00DA01270021112F01DD112000E071
:102DE0003846CDE9000106A90EA8FFF777FCDDE91A
:102DF0000F010E9A0391002104910092BA46210717
:102E00000CD40399514500DA8A46BAF1010F05DD69
:102E1000009AAAF10101515C302908D0B84202DAC7
:102E200010F1040F06DA0121CDE9011015E0AAF135
:102E30000101E9E7002805DC049901440491AAEBAB
:102E4000000102E0411C514500DD8A460499401A08
:102E5000401C01904FF000400290200704D40198DC
:102E6000504501DBCDF8048000208DF84F0002981A
:102E70000DF14F07B0F1004F25D02B200E90029896
:102E80004FF0020800280CDA404202902D200E90EC
:102E900007E00A210298FDF7E5FC3031029007F8BF
:102EA000011DB8F10001A8F10108F2DC0298002828
:102EB000EFD1791E0E980870307800F0200040F0B5
:102EC000450007F8020D12A8C01B00F1070814986E
:102ED000007800B1012000EB0A01019801EBE071DC
:102EE00005984144401A401E0590E00306D45B4615
:102EF0002146179A059800F05DF80544149800786B
:102F000018B15A46179990476D1CE00324D55B46CB
:102F10002146179A059800F04DF805441CE00498E6
:102F2000002807DBDDE90301884203DD0098405CEF
:102F3000179901E0179930205A469047049805F1F7
:102F40000105401C04900198401E019004D12E20E0
:102F50005A46179990476D1CBAF10001AAF1010A6F
:102F6000DDDC05E017F8010B5A46179990476D1CF8
:102F7000B8F10001A8F10108F4DC5B462146179A7C
:102F80000598ABE62D0000002B000000200000009B
:102F90002DE9F041044600251E461746880404D456
:102FA00005E039462020B0476D1C641EF9D528463F
:102FB000BDE8F0812DE9F041044600251E4690460B
:102FC000C80301D5302700E02027880404D505E098
:102FD00041463846B0476D1C641EF9D52846BDE809
:102FE000F08100002DE9FF5F83465846FDF7C7FBDF
:102FF0000446954A954BFDF7D5FB44D25846FDF75C
:10300000BEFB934A934BCDE90201FDF746FA804699
:1030100000221346FDF7DEFB12D85846FDF7AFFB42
:1030200080468B4A8B4BFDF738FA00228A4BCDE95C
:103030000001FDF78BF9CDE90201FDF768FB11E016
:103040005846FDF79CFB824A824BCDE90001FDF713
:1030500024FA0022804BCDE90201FDF718FA8046E0
:10306000FDF755FB7D4951F820A05046FDF704FBC4
:1030700006467B4A7B4BFDF710FA0446FDF7C2FB80
:1030800004B0BDE8F09F5846FDF779FB0446764A48
:10309000764BFDF787FB44D25846FDF770FB6C4A30
:1030A0006C4BCDE90201FDF7F8F98046002213468A
:1030B000FDF790FB12D85846FDF761FB644A654B5B
:1030C000CDE90001FDF7E9F90022634BCDE90201EA
:1030D000FDF73CF98046FDF71AFB11E05846FDF775
:1030E0004EFB5B4A5B4BCDE90001FDF7D6F90022B0
:1030F000594BCDE90201FDF7CAF98046FDF707FB00
:10310000C0F5C770554951F820A05046FDF7B4FAF4
:103110000646534A534BFDF7C0F90446FDF772FBD0
:10312000AEE75846FDF72BFB0446514A514BFDF7DD
:1031300039FB44D25846FDF722FB454A454BCDE9C1
:103140000201FDF7AAF9804600221346FDF742FB73
:1031500012D85846FDF713FB3D4A3E4BCDE900011E
:10316000FDF79BF9804600223B4BFDF7EFF8CDE9D8
:103170000201FDF7CCFA11E05846FDF700FB344A96
:10318000344BCDE90001FDF788F980460022324B2F
:10319000FDF77DF9CDE90201FDF7B9FAA0F5C77099
:1031A0002E4951F820A05046FDF766FA06462C4AF3
:1031B000314BFDF772F90446FDF724FB60E75846F2
:1031C000FDF7DDFA8046224A224BFDF766F9002220
:1031D0001346CDE90201FDF7FDFA12D85846FDF776
:1031E000CEFA1B4A1B4BCDE90001FDF756F980468C
:1031F0000022194BFDF7AAF8CDE90201FDF787FA85
:1032000011E05846FDF7BBFA8046114A114BFDF715
:1032100044F90022104BCDE90001FDF738F9CDE962
:103220000201FDF774FAC0F547700C4951F820A06F
:103230005046FDF721FA0646094A0F4BFDF72DF9D6
:103240000446FDF7DFFA1BE7F4D64354FB21F93FB0
:103250009CA223B9FCAB5F400000E03FE45B0008A8
:103260002D431CEBE2361A3FEA2E4454FB21094061
:10327000320D337F7CD91240E2361ABF70B5044656
:1032800025462E460448A0EB6606354629462046CC
:10329000FCF7ECFF70BD0000865A375F2DE9F14F57
:1032A00086B092A0FFF76CF9002421E02046FDF7DC
:1032B000E3F98146934A944BFDF7EFF80022934BD4
:1032C000CDE90001FDF75BF90646914A914BFDF708
:1032D0003DF8CDE90201FDF795FA8046424600210E
:1032E0008D48006800F0F4FF022000F027FC641C09
:1032F000B4F5FA7FDADD069800F0D0FC05904FF4C3
:10330000FA7421E02046FDF7B7F981467D4A7E4BED
:10331000FDF7C3F800227D4BCDE90001FDF72FF941
:103320007B4A7C4BCDE90201FDF710F80646FDF71C
:1033300069FA8046424600217748006800F0C8FFDD
:10334000022000F0FBFB641E002CDBDA069800F084
:10335000A5FC049000221146104600F0B9FFC820D9
:1033600000F0ECFB0598FDF70AFA064632460B46DC
:103370006AA0FFF705F90498FDF701FA0646324600
:103380000B466BA0FFF7FCF8DDE90410FCF768FFC3
:103390008146FDF7F4F921F000410646FDF732FAC7
:1033A0000546DDE90410FDF749FA08D02846FDF787
:1033B000E6F90646634A644BFDF7F4F90BD263A0C5
:1033C000FFF7DEF84FF400716B48FDF77FFD00203A
:1033D00007B0BDE8F08FDDE90410FDF72FFA07D242
:1033E00066A0FFF7CDF84FF0FF306C49086005E0AC
:1033F0006BA0FFF7C5F80120684908606FA0FFF7D0
:10340000BFF872480068FDF729F929460390FCF7D8
:103410002DFF8346FDF7B3F981463A4A3A4BFDF753
:1034200036F821F0004106460022694BFDF7D2F93B
:103430001DD268A0FFF7A4F82846FDF7A0F90246C0
:103440000B46CDE902012F482F49FDF798F80646B3
:1034500000225F4BFCF77AFF8146FDF758F95B4984
:1034600008600846016861A0FFF78AF802E061A0E1
:10347000FFF786F8614A00212748006800F028FF1E
:103480004FF42F7000F05AFB069800F007FC8146BD
:1034900042480068FDF7E2F882464946FCF7E6FE3E
:1034A00007464A4801683846FFF70CF90646FFF719
:1034B000D7F953490860142000F040FB51A0FFF7F2
:1034C0005FF84F480068FDF75AF9064632460B464A
:1034D00052A0FFF755F800221146104600F0F8FE02
:1034E000C82000F02BFB012072E700004D4F543A3A
:1034F00020416C69676E2073656E736F722E0D0AC2
:1035000000000000EA2E4454FB21194000407F4097
:10351000320D337F7CD91240100100206D69645F49
:10352000616E676C653D252E34660D0A0000000053
:10353000656E645F616E676C653D252E34660D0AAD
:10354000000000007B14AE47E17A943F4D4F543A9F
:10355000204661696C656420746F206E6F746963C6
:1035600065206D6F76656D656E74206C6F6F70325F
:1035700032322E0D0A000000000C01404D4F543A2B
:103580002073656E736F725F646972656374696FCF
:103590006E3D3D4343570D0A00000000040100202A
:1035A0004D4F543A2073656E736F725F6469726534
:1035B0006374696F6E3D3D43570D0A004D4F543A99
:1035C00020505020636865636B3A2000140100208E
:1035D0000000E03F6661696C202D20657374696DA1
:1035E000617465642070703A0000000025640D0A63
:1035F000000000004F4B210D0A000000E4CB964074
:10360000500100204D4F543A205A65726F20656C6E
:1036100065632E20616E676C653A0000252E346666
:103620000D0A00002DE9FC5F06464FF0E02084699A
:1036300050480068844215D24E490968081BFDF7BE
:1036400016F84D490090FCF743FE0190FDF797F8FE
:1036500082464A4A4A4BFCF720FF0746FDF7D2F85C
:10366000054617E06FF07F41091B424A126888182F
:10367000FCF7FDFF40490090FCF72AFE0190FDF7A2
:103680007EF807463D4A3E4BFCF707FF8246FDF7B2
:10369000B9F805463748046000212846FDF7CEF802
:1036A00008D02846FDF76BF807460022354BFDF79A
:1036B00091F800D2344D294634480068FCF7D6FD15
:1036C0000190FDF75CF807468846314801683046AE
:1036D000FCF7C6FD0190FDF752F821F0004182464B
:1036E0003A464346FDF776F82FD22948016830461E
:1036F000FCF7B6FD00210190FDF7A0F802D24FF0D3
:10370000FF300CE0224801683046FCF7A9FD00219B
:103710000190FDF79DF801D2012000E000208346D2
:10372000FCF79CFF8246194801685046FCF79EFD55
:1037300080462946FCF79AFD074615480168384639
:10374000FCF73CFD1249086001E011480660114891
:10375000D0F80090104801680D480068FEF7B2FFED
:1037600007463A460021484600F0B2FD4846BDE80B
:10377000FC9F000018010020000010418DEDB5A055
:10378000F7C6B03E0000E03F6F12833A1C010020F4
:10379000200100200C010020140100202DE9F84F29
:1037A00004460D4621F0004000917349814211DC2E
:1037B0007249884201DC06D12CB120462946BDE879
:1037C000F84FFEF756BF6E48002DCCBF6D496E49CD
:1037D000BDE8F88F6D49814211DD6D498142D8BF46
:1037E0004FF0FF366DDD20462946FEF7D9FE04284E
:1037F00008BFFEF749FF20462946BDE8F88F654916
:10380000654F25F00045814233DD6449814219DD71
:10381000002632464FF0804320462946FCF796FDAD
:1038200080468A46012220462946FDF795F9002266
:103830003B46FCF72CFE42465346FCF7A0FE0446EE
:103840000D463EE001260022BA463B462046294668
:10385000FCF77CFD80460F46002253462046294651
:10386000FCF715FE42463B46FCF789FE04460D4632
:1038700027E04B4981421BDDDFF828A10226002208
:10388000534620462946FCF708FE00223B46FCF73B
:103890005DFD80460F460022534620462946FCF730
:1038A000F6FD42463B46FCF76AFE04460D4608E03C
:1038B000032622462B4600203B49FCF760FE0446C7
:1038C0000D4622462B4610461946FCF7E6FD8B4670
:1038D000824602460B46FCF7E0FD074602463348A7
:1038E00088460B4606217844FEF76EFE52465B463C
:1038F000FCF7D3FD82462E488B463A4643460521C7
:103900007844FEF761FE3A464346FCF7C6FD0246A0
:103910000B46002E504659460CDAFCF717FD22469E
:103920002B46FCF7BAFD01B022462B46BDE8F04F0E
:10393000FCF7B0BDFCF70AFD22462B46FCF7ADFDB7
:103940001C4A7A4402EBC603D3E90023FCF79FFD2F
:1039500022462B46FCF79BFD174A7A4402EBC6032E
:10396000D3E90023FCF796FD009A002AB8BF81F046
:103970000041BDE8F88F0000000010440000F07F17
:10398000182D4454FB21F93FFB21F9BF0000DC3F17
:103990000000203E0000F33F0000F03F0000E63F43
:1039A000008003400000F83F0000F0BF86260000C2
:1039B00044260000E2250000AA2500002DE9F04D74
:1039C0009446CCF1000423F000464CEA0404524F24
:1039D00046EAD4749A46884621F00042BC4206D892
:1039E000454240EA050442EAD474BC4204D9BDE829
:1039F000F04D6246FEF740BEAAF14055A5F17F6545
:103A000055EA0C040BD0022404EAAA74434DDFF8F3
:103A100010E144EAD87452EA000B04D00CE0BDE88F
:103A2000F04DFFF7BBBE002C14BF012CBDE8F08D9C
:103A3000022C30D0032C32D056EA0C0B0AD0BE42F6
:103A400020D1BA4209D126F0804622F08042334686
:103A5000114617E000291ADB25E0DFF8C8B0FB4467
:103A6000002C04BFDBE90001BDE8F08D012C02BF92
:103A7000DBE9000181F00041BDE8F08D022C0AD0A5
:103A8000032C0CD0BA4212D1B8F1000F0BDA234844
:103A90002549BDE8F08D28462449BDE8F08D28462B
:103AA0007146BDE8F08D1D482149BDE8F08D921B9F
:103AB00012153C2AC4BF19481D490EDCBAF1000F8B
:103AC000BEBF12F13C0F0020014606DB6246FCF748
:103AD00056FD21F00041FFF761FE002C08BFBDE854
:103AE000F08D012C04BF81F00041BDE8F08D114A3A
:103AF000114B022C07D0FCF7CAFC2A46BDE8F04D5A
:103B00000A4BFCF7C4BCFCF7C2FC2A46BDE8F04DEA
:103B1000064BFCF7BFBC00000000F07F182D44549A
:103B2000FB2109C03E250000FB21F9BFFB21094014
:103B3000FB21F93F075C143326A6A13C30B50446AF
:103B4000002504E04FF47A7000F004F86D1CA542E3
:103B5000F8D330BD70B5034600224FF0E0267569FA
:103B60000D4E368803FB06F44FF0E026B16910E0F5
:103B70004FF0E026B06988420BD0884202D20E1A7C
:103B8000324402E02E1A0E4432440146A24200D3CF
:103B900000E0EDE700BF70BD200000202DE9F041FE
:103BA0000C480068FCF75AFD06460B4801680B48B4
:103BB0000068FCF703FB07463146FCF757FB054658
:103BC000074801682846FCF74BFB0446FEF748FE11
:103BD000BDE8F081140100204C01002020010020EC
:103BE0005001002070B514461D460E46002814BF33
:103BF00001210021314321F00041C1F17F6101F138
:103C0000E041C90F16D1002C14BF01210021294326
:103C100021F00041C1F17F6101F1E041C90F09D1FB
:103C20001449B1EB460F08BF00281CD0690008BF3B
:103C3000002C18D03146FCF721FF024640F2FF70FD
:103C400030EA11500DD0F017B0EBE17F09D00846F3
:103C500065F31E0084460B4620466146FCF71AFCBD
:103C60000246104670BD0120FEF726FDBDE87040FB
:103C7000FEF704BD0000E0FF70B504460D46E1B25A
:103C80000548FEF742FC00BF80210348FEF770FBA9
:103C90000028F9D0204670BD003801402DE9F04FD2
:103CA00085B03448006800F0C1FA0446FCF7DFFC38
:103CB000824631480068FCF7D1FC04465146FCF7C7
:103CC000D2FA04902D480068FCF7D6FC80462C4AB6
:103CD0002C4BFCF7E2FB04460D460498FCF74FFD25
:103CE00021F00041064622462B46FCF773FD19D20F
:103CF00000210498FCF7ACFD02D22348234901E0DF
:103D0000214823498046894622480068FCF737FD50
:103D1000064642464B46FCF719FB0446FCF772FD8B
:103D20001C4908605046FCF7C5FC1349086013485D
:103D30000068FCF793FC014601905046FCF7C8FA76
:103D40008346FCF71CFD104A114BCDE90201FCF73C
:103D5000A4FB04460D460F480068FCF710FD06461C
:103D600022462B46FCF7F2FA8046FCF74BFD05B0E5
:103D7000BDE8F08F6C000020600100205801002099
:103D80009A9999999999E93FEA2E4454FB2119C0CF
:103D9000FB2119405C01002030B502460B46002093
:103DA00010E012F8014B6040002109E000F001042E
:103DB0001CB18C2484EA600000E040104C1CE1B28D
:103DC0000829F3DB1C1EA3F10105ABB2E9D130BD1C
:103DD0002DE9F14F82B04FF0E02084692B48006854
:103DE000844215D229490968081BFCF740FC284980
:103DF0000090FCF76DFA0190FCF7C1FC0746254ADC
:103E0000254BFCF74AFB8246FCF7FCFC054618E014
:103E10006FF07F41091B1D4A12688818FCF727FCC8
:103E200083461B49FCF754FA8246FCF7A8FC194A62
:103E3000194BCDE90001FCF730FB0746FCF7E2FC2B
:103E4000054600212846FCF7F9FC08D02846FCF777
:103E500096FC07460022114BFCF7BCFC00D2104D2B
:103E60000298FFF71BFF06460E4801683046FCF734
:103E7000F7F907462946FCF72BFA81460948066000
:103E8000024804604846BDE8FE8F0000640100203F
:103E9000000010418DEDB5A0F7C6B03E0000E03F38
:103EA0006F12833A6801002010B504462046FDF7E2
:103EB00033F800F02BF82046FDF727F800F026F83D
:103EC0002046FDF71BF800F021F82046FDF72BF8FF
:103ED00010BD38B5044601212069FDF7D9FCA08941
:103EE000A1880843ADF8000003208DF802001420DB
:103EF0008DF8030069462068FCF754FF6946A06806
:103F0000FCF750FF204600F07EF838BD002001E0AD
:103F1000411CC8B20A28FBDB704710B50446204696
:103F2000FDF701F8FFF7F2FF2046FCF7EEFFFFF781
:103F3000EDFF2046FCF7E2FFFFF7E8FF10BD2DE99B
:103F4000F04107460D460024002613E06006040EEB
:103F50003846FCF7DAFFFFF7D9FF3846FCF7EAFFEF
:103F600008B1601CC4B23846FCF7C8FFFFF7CEFFAB
:103F7000701CC6B2082EE9DB1DB93846FFF7CDFF2D
:103F800002E03846FFF790FF2046BDE8F08170B5AB
:103F900006460C4600251EE004F0800018B13046AD
:103FA000FCF7C1FF02E03046FCF7B6FFFFF7AEFFBB
:103FB0003046FCF7AAFFFFF7A9FF3046FCF79EFF4B
:103FC000072D02D13046FCF7AEFF6006040EFFF766
:103FD0009DFF681CC5B2082DDEDB70BD10B5044620
:103FE0002046FCF7A0FF2046FCF78FFFFFF78EFF6F
:103FF0002046FCF791FFFFF789FF2046FCF77EFF84
:10400000FFF784FF10BD10B504462046FCF784FF7F
:104010002046FCF77AFFFFF779FF2046FCF783FF85
:1040200010BD70B505462846FCF77DFFFFF76EFF13
:104030002846FCF76AFFFFF769FF2846FCF77AFF7E
:1040400008B1012400E000242846FCF757FFFFF7E1
:104050005DFF204670BD000010B50446154800788D
:10406000042803D013480078032800D110BD20464F
:1040700000F044FB10490860FFF790FD0F4908600D
:104080000F48007820B1012803D0022803D101E0B5
:1040900005E004E003E00BA0FEF772FA00BF00BFEA
:1040A000114A11685068054A126800F011F900BF02
:1040B000DCE700004901002020010020240100204D
:1040C000480100204D4F543A206E6F20746F72717A
:1040D000756520636F6E74726F6C2073656C6563B9
:1040E000746564210000000038010020FCF7C2FD67
:1040F00019E0FDF757FC0C4801680C48006800F017
:104100001BF80A480068FFF7A7FF042308480621A8
:1041100002680120FDF792F9022306480278032184
:104120000120FDF761F9E4E71C0000206C0000208D
:10413000600100201800002070B505460C46284696
:1041400000F0F8FA314908603148007805285AD261
:10415000DFE800F0032E0C454F002E48007810B920
:104160002D48446001E02D4804604CE02C48046078
:104170002C4801682A480068FCF772F80646FDF7EB
:104180009FF9294908602148016827480068FCF721
:1041900067F80646FDF75EFA204908601D4800787A
:1041A00028B9084600681C494860002008602AE0D9
:1041B0001D480460154801681B480068FCF750F86A
:1041C0000646FDF747FA154908601248007828B9F5
:1041D00008460068104948600020086013E0124853
:1041E0000460006800F066FC0B494860002008602D
:1041F00009E00B4804600068FFF714FA06494860BC
:104200000020086000BF00BF70BD00002801002032
:104210004901002048010020380100202C01002025
:1042200034010020200100203001002070B5064636
:104230003046FFF7D3FE6C213046FFF7A8FE00BFE3
:104240003046FFF7EEFE0028FAD10C213046FFF78A
:104250009EFE00BF3046FFF7E4FE0028FAD130464C
:10426000FFF7D1FE3046FFF7B9FE6D213046FFF76C
:104270008EFE00BF3046FFF7D4FE0028FAD10121A0
:104280003046FFF75CFE044600213046FFF757FE3C
:1042900005463046FFF7B7FE05EB042080B270BD3F
:1042A00009480068006808B9012000E0002020B13A
:1042B0004FF0FF300549086005E003480068C0681A
:1042C0000068024908607047C8000020F400002020
:1042D0002DE9F74F96B082468B4600215846FCF7F1
:1042E000ADFA38D051465046FBF7C0FF5946119001
:1042F0005846FBF7BBFF10901199FBF75FFF129038
:10430000FEF7BCFF1390EF4801681398FBF7E0FF3E
:1043100080465846FCF733FACDE90A015046FCF7CF
:104320002EFACDE90801DDE90A23FFF747FBCDE9C5
:104330000E011898FCF723FACDE90C01DDE90E23F4
:10434000FCF704F8CDE91001FCF75CFA1390FEF7D6
:1043500087FA189016E0DB4801685046FBF7B8FF73
:1043600080461898FCF70BFAD74AD84BCDE90E01D6
:10437000FBF7ECFFCDE91001FCF744FA1390FEF7D0
:104380006FFA18904046FCF7FAF9D14AD14BCDE9C3
:104390001201FCF71FFA01D2DFF83C834046FCF71C
:1043A000EEF9CB4ACD4BCDE91201FCF7FBF901D276
:1043B000DFF82C831898FCF7E2F9CA4ACA4BCDE91A
:1043C0000E01FCF7DCF80022C84BCDE91001FBF729
:1043D000BDFFCDE91201FCF7B9F907464046FCF7ED
:1043E000CEF9CDE910011898FCF7C9F9CDE906011D
:1043F0003846FCF752F9BB4ABB4BCDE90201FCF74A
:104400004CF8CDE90401DDE90623FCF740F8CDE9DD
:104410000801FCF7F7F90A90FEF7E4FD0B90FCF7B2
:10442000AEF9B34AB34BCDE90C01FCF736F8CDE950
:104430000E01DDE91023FCF730F8CDE91201FCF79D
:10444000E1F981464046FCF79AF9CDE9100138467A
:10445000FCF723F90022A54BCDE90001FCF717F882
:10446000A04AA14BCDE90201FCF717F8CDE90601FE
:104470001898FCF784F9CDE90401DDE90623FCF77F
:1044800006F8CDE90801FCF7BDF90A90FEF7AAFD90
:104490000B90FCF774F9964A964BCDE90C01FBF7AB
:1044A000FCFFCDE90E01DDE91023FBF7F6FFCDE9B6
:1044B0001201FCF7A7F9149049464FF07E50FBF724
:1044C000CFFE13901499FBF7CBFE1590072F7DD2EA
:1044D000DFE807F0C60424446486A6004FF080415C
:1044E0001598FBF7F5FE139048461499FBF766FE06
:1044F00012901399FBF762FE04464FF08041159825
:10450000FBF7E6FE13901499FBF758FE05464FF0B3
:1045100080411598FBF7DCFE0646A5E04FF0804190
:104520001598FBF7D5FE49461390FBF747FE044666
:104530004FF080411598FBF7CBFE13904846149935
:10454000FBF73CFE12901399FBF738FE05464FF03F
:1045500080411598FBF7BCFE064685E04FF0804190
:104560001598FBF7B5FE04464FF080411598FBF710
:10457000AFFE139048461499FBF720FE1290139952
:10458000FBF71CFE05464FF080411598FBF7A0FE97
:1045900013901499FBF712FE064665E04FF0804138
:1045A0001598FBF795FE04464FF080411598FBF7F0
:1045B0008FFE49461390FBF701FE05464FF0804100
:1045C0001598FBF785FE1390484600E048E01499E3
:1045D000FBF7F4FD12901399FBF7F0FD064643E05C
:1045E0004FF080411598FBF773FE13901499FBF779
:1045F000E5FD04464FF080411598FBF769FE05463E
:104600004FF080411598FBF763FE139048461499CC
:10461000FBF7D4FD12901399FBF7D0FD064623E07B
:104620004FF080411598FBF753FE139048461499BC
:10463000FBF7C4FD12901399FBF7C0FD04464FF041
:1046400080411598FBF744FE05464FF080411598D0
:10465000FBF73EFE49461390FBF7B0FD064603E02C
:1046600000240025002600BF00BF23492046FBF799
:10467000FDFD1290FCF737F880B2014613904FF021
:104680008040FDF71EFD1C492846FBF7EFFD129008
:10469000FCF729F880B2014613904FF08040FDF7F7
:1046A00012FD15493046FBF7E1FD1290FCF71BF8AF
:1046B00080B2014613904FF08040FDF706FD19B01F
:1046C000BDE8F08F08010020F4D64354FB21F93FE8
:1046D000105839B4C876E23F46B6133FC876E2BFF9
:1046E00046B613BF40AF2D3852C1F03F0000F03F37
:1046F0006B6058E87AB6FB3F0000B4442DE9F04106
:1047000004462046FFF7CAFA064608480068FBF749
:10471000A5FF07463146FBF7A9FD05460448016899
:104720002846FBF79DFDBDE8F08100000401002054
:104730004C0100202DE9F04104462046FFF748FBDC
:104740000746FCF7FFFB054604480068FBF786FFB9
:1047500006462946FBF78AFDBDE8F08104010020EA
:104760002DE9F04105460E46174600246648FDF740
:10477000C7FEC4B265480078112818D1AA2C13D1FD
:104780006348007855280ED10020604908706148C0
:104790000078614908705F484078487000205F49A0
:1047A00008705F490870ADE059480470AAE05B48A2
:1047B000007830B101280FD002282AD003287DD1FB
:1047C0004CE05548847080785649088053480078FA
:1047D000401C5249087094E04F495348B0F900001A
:1047E000C01C0C5450480088401C00B24E49088040
:1047F0000846B0F900004B49B1F90010884207DBC8
:1048000000204949088045480078401C4349087009
:1048100077E04448B0F90000C01C3F490C544148BF
:104820000088C01C81B23C48FFF7B6FA3C490870CA
:104830003C48B0F90000C01C3749085C3849097889
:10484000884205D039A0FDF79BFE0020BDE8F0812D
:1048500032480078401C3149087052E03B480088DB
:1048600030B93A480088401C00B23849088046E018
:1048700036480088012842D10020344908801BE0D6
:1048800025493248B0F90000C01C095C30482F4A65
:10489000B2F90020815420492C48B0F90000401D95
:1048A000085C2C49294AB2F900208854274800881E
:1048B000401C00B225490880244800E020E0B0F9FF
:1048C00000000228DCDB2248B0F900002860214803
:1048D000B0F9000030601048C079387000200F49EE
:1048E00008700B49087011200849087000200C4915
:1048F00008700C4908800C4908801449088000E0C1
:1049000000BF00BF0020A1E700380140AB0000203D
:10491000AA000020D84D0008A0010020A50000201A
:10492000A4000020AC000020A600002052656365B2
:1049300069766564206461746120636865636B20D7
:1049400073756D206572726F72210000A8000020DF
:10495000A0000020A20000202DE9FF4306460F46DC
:104960009046994600200090019002900390002507
:1049700020480680204807802048A0F800800024B6
:1049800004E01F48005D0DF80400641C022CF8DBF5
:1049900007258DF8025000240FE01648015DE01C49
:1049A0000DF800101448015D601D0DF8001013484B
:1049B000015DE01D0DF80010641C022CEDDBA81C4D
:1049C0000DF80090E81C81B26846FFF7E5F9E91C94
:1049D0000DF801000B480178281D0DF8001009485A
:1049E0004178681D0DF800100D216846FDF792FD15
:1049F000BDE8FF839A0000209C0000209E0000205C
:104A0000D84D0008DA4D000810B51B48006818B1F1
:104A100001201A4908602DE0002018490860184854
:104A20000068B0FA80F0C0F11F0404EB840015495F
:104A300051F8200008B1012000E0002028B940F61C
:104A4000024211A116A0FDF79BFD04EB84010D4A63
:104A500002EB810041684968416000F10801426849
:104A60008A4202D14168496841604168C968104A78
:104A7000116000BF10BD000000010020E800002010
:104A8000DC000020B00100202E2E5C4672656552CD
:104A9000544F535C7372635C7461736B732E630069
:104AA0004572726F723A2025732C2025640D0A001E
:104AB000C40000202DE9F14F82B04FF0E02084695E
:104AC00031480068844215D22F490968081BFBF75A
:104AD000CEFD2E490190FBF7FBFB8346FBF74FFE13
:104AE00081462B4A2B4BFBF7D8FC0646FBF78AFE88
:104AF000054617E06FF07F41091B234A12688818AA
:104B0000FBF7B5FD21490190FBF7E2FB8346FBF77C
:104B100036FE06461E4A1F4BFBF7BFFC8146FBF7DD
:104B200071FE05461848046000212846FBF786FE02
:104B300008D02846FBF723FE06460022164BFBF75B
:104B400049FE00D2154D29460298FBF78FFB074618
:104B5000134801683846FBF731FB0646FDF780FE37
:104B60000F4908600F48D0F800800F4801680C48D2
:104B70000068FDF7A7FD0646324600214046FFF7D4
:104B8000A7FB4046BDE8FE8F180100200000104141
:104B90008DEDB5A0F7C6B03E0000E03F6F12833A3E
:104BA000200100200C0100201401002010B500BFDE
:104BB000502080F31188BFF34F8FBFF36F8F00BF7A
:104BC00000F01EF818B14FF080500449086000BF93
:104BD000002080F3118800BF10BD000004ED00E04C
:104BE0000549096809B9012005E00449096809B9BE
:104BF000022000E000207047E000002000010020BB
:104C00002DE9F0414FF000085E48006800287DD192
:104C10005D480068451C5C480560EDB95B4800686C
:104C2000006808B9012000E0002028B940F6C7223A
:104C300057A15DA0FDF7A4FC544807685E480068D2
:104C4000524908605C4807605C480068401C5B494A
:104C50000860FFF725FB00BF59480068854277D3FD
:104C600000BF4A480068006808B9012000E0002041
:104C700020B14FF0FF305249086068E043480068B7
:104C8000C068C4686668B54202D24D4806605EE0FE
:104C90006069D4E902128A60D4E902214A60211DC8
:104CA00042688A4201D1E168416000226261016884
:104CB000491E0160A06A98B1A06AD4E907128A600F
:104CC000D4E907214A6004F1180142688A4201D1FF
:104CD000216A41600022A2620168491E016000BF92
:104CE00094F82C100120884036490968084335495A
:104CF0000860E16A01EB8101334A02EB81014868F7
:104D0000A0608268E260211D826800E032E05160AC
:104D10008160E16A01EB81012B4A02EB8102626151
:104D2000E16A01EB8101284A52F82110491CE26A2C
:104D300002EB8202244B43F822102449E06A0968FE
:104D4000C96A88428DD34FF001088AE700E000BFAE
:104D50001E480068C06A00EB80001B4951F8200023
:104D6000012801D94FF001081948006808B14FF037
:104D7000010804E017480068401C164908604046D6
:104D8000BDE8F08100010020D8000020C80000200C
:104D90002E2E5C4672656552544F535C7372635C91
:104DA0007461736B732E63004572726F723A2025C3
:104DB000732C2025640D0A00CC000020EC0000209C
:104DC000F4000020DC000020B0010020C40000201E
:104DD000E8000020E400002055AA0D0A00000000B1
:104DE00000000000002F0000000007000700001472
:104DF0007F147F1400242A7F2A1200626408132380
:104E000000364955225000000503000000001C2216
:104E10004100000041221C000014083E0814000854
:104E2000083E0808000000A0600000080808080804
:104E3000000060600000002010080402003E51499C
:104E4000453E0000427F400000426151494600213A
:104E500041454B31001814127F1000274545453954
:104E6000003C4A49493000017109050300364949AF
:104E7000493600064949291E000036360000000068
:104E800056360000000814224100001414141414B3
:104E9000000041221408000201510906003249595C
:104EA000513E007C1211127C007F49494936003E78
:104EB00041414122007F4141221C007F4949494133
:104EC000007F09090901003E4149497A007F08082D
:104ED000087F0000417F4100002040413F01007FEA
:104EE00008142241007F40404040007F020C027FB6
:104EF000007F0408107F003E4141413E007F0909C8
:104F00000906003E4151215E007F091929460046ED
:104F1000494949310001017F0101003F4040403FC4
:104F2000001F2040201F003F4038403F006314080E
:104F300014630007087008070061514945430000E9
:104F40007F41410000552A552A55000041417F000C
:104F50000004020102040040404040400000010201
:104F60000400002054545478007F484444380038EA
:104F70004444442000384444487F00385454541872
:104F800000087E0901020018A4A4A47C007F080484
:104F900004780000447D4000004080847D00007F54
:104FA000102844000000417F4000007C0418047871
:104FB000007C0804047800384444443800FC24246D
:104FC00024180018242418FC007C08040408004855
:104FD0005454542000043F444020003C4040207C76
:104FE000001C2040201C003C4030403C0044281065
:104FF0002844001CA0A0A07C004464544C44141419
:105000001414141400000000000000000000000050
:1050100000000000000000F8000000000000003365
:105020003000000000100C06100C0600000000000C
:105030000000000040C07840C0784000043F0404F5
:105040003F040400007088FC08300000001820FFB6
:10505000211E0000F008F000E018000000211C03F1
:105060001E211E0000F00888700000001E2123246D
:105070001927211010160E0000000000000000008B
:1050800000000000000000E018040200000000071B
:105090001820400000020418E00000000040201822
:1050A00007000000404080F0804040000202010FF5
:1050B00001020200000000F0000000000101011FD9
:1050C00001010100000000000000000080B070003D
:1050D00000000000000000000000000000010101CD
:1050E000010101010000000000000000003030005C
:1050F0000000000000000000806018040060180636
:105100000100000000E010080810E000000F10206F
:1051100020100F00001010F8000000000020203FB9
:105120002020000000700808088870000030282443
:1051300022213000003008888848300000182020E4
:1051400020110E000000C02010F800000007042409
:10515000243F240000F8088888080800001921204E
:1051600020110E0000E0108888180000000F1120A8
:1051700020110E0000380808C83808000000003F61
:10518000000000000070880808887000001C2221C0
:1051900021221C0000E010080810E000000031226D
:1051A00022110F00000000C0C0000000000000300D
:1051B000300000000000008000000000000080605F
:1051C00000000000000080402010080000010204E0
:1051D00008102000404040404040400004040404C7
:1051E0000404040000081020408000000020100883
:1051F00004020100007048080808F00000000030B8
:1052000036010000C030C828E810E0000718272445
:1052100023140B000000C038E0000000203C2302F3
:105220000227382008F8888888700000203F202056
:1052300020110E00C0300808080838000718202088
:105240002010080008F808080810E000203F20207F
:1052500020100F0008F88888E8081000203F202060
:105260002320180008F88888E8081000203F200054
:1052700003000000C030080808380000071820208C
:10528000221E020008F808000008F808203F21014B
:1052900001213F20000808F8080800000020203FF6
:1052A0002020000000000808F8080800C080808066
:1052B0007F00000008F888C028180800203F20015F
:1052C0002638200008F8080000000000203F2020B9
:1052D0002020300008F8F800F8F80800203F003FD0
:1052E000003F200008F830C00008F808203F2000E8
:1052F00007183F00E01008080810E0000F102020F9
:1053000020100F0008F808080808F000203F2101CD
:1053100001010000E01008080810E0000F18242424
:1053200038504F0008F8888888887000203F200097
:10533000030C30200070880808083800003820214D
:1053400021221C00180808F8080818000000203F57
:105350002000000008F808000008F808001F2020BE
:1053600020201F000878880000C83808000007388F
:105370000E010000F80800F80008F800033C0700E0
:10538000073C0300081868808068180820302C0348
:10539000032C30200838C800C83808000000203F1F
:1053A0002000000010080808C8380800203826210E
:1053B00020201800000000FE020202000000007F12
:1053C00040404000000C30C0000000000000000120
:1053D0000638C00000020202FE000000004040400B
:1053E0007F00000000000402020204000000000030
:1053F00000000000000000000000000080808080AD
:105400008080808000020204000000000000000094
:10541000000000000000808080800000001924222D
:1054200022223F2008F8008080000000003F112069
:1054300020110E000000008080800000000E11206E
:1054400020201100000000808088F800000E11204C
:1054500020103F200000808080800000001F22225A
:1054600022221300008080F0888888180020203FC6
:10547000202000000000808080808000006B9494D9
:105480009493600008F8008080800000203F210095
:1054900000203F2000809898000000000020203F5E
:1054A00020200000000000809898000000C080804C
:1054B000807F000008F8000080808000203F2402E8
:1054C0002D302000000808F8000000000020203FD8
:1054D000202000008080808080808000203F20008D
:1054E0003F20003F8080008080800000203F21001E
:1054F00000203F200000808080800000001F2020CE
:1055000020201F00808000808000000080FFA120FC
:1055100020110E000000008080808000000E11200D
:1055200020A0FF80808080008080800020203F219C
:10553000200001000000808080808000003324244F
:1055400024241900008080E0808000000000001FFB
:10555000202000008080000000808000001F2020AC
:1055600020103F20808080000080808000010E306D
:105570000806010080800080008080800F300C03CE
:105580000C300F0000808000808080000020312ED1
:105590000E312000808080000080808080818E70AD
:1055A0001806010000808080808080000021302C5F
:1055B0002221300000000000807C02020000000078
:1055C000003F404000000000FF000000000000001D
:1055D000FF0000000002027C800000000040403F0D
:1055E00000000000000601010202040400000000A7
:1055F00000000000000000000000000000000000AB
:1056000000000000000000F800000000000000336F
:105610003000000000100C06100C06000000000016
:105620000000000040C07840C0784000043F0404FF
:105630003F040400007088FC08300000001820FFC0
:10564000211E0000F008F000E018000000211C03FB
:105650001E211E0000F00888700000001E21232477
:105660001927211010160E00000000000000000095
:1056700000000000000000E0180402000000000725
:105680001820400000020418E0000000004020182C
:1056900007000000404080F0804040000202010FFF
:1056A00001020200000000F0000000000101011FE3
:1056B00001010100000000000000000080B0700047
:1056C00000000000000000000000000000010101D7
:1056D0000101010100000000000000000030300066
:1056E0000000000000000000806018040060180640
:1056F0000100000000E010080810E000000F10207A
:1057000020100F00001010F8000000000020203FC3
:10571000202000000070080808887000003028244D
:1057200022213000003008888848300000182020EE
:1057300020110E000000C02010F800000007042413
:10574000243F240000F80888880808000019212058
:1057500020110E0000E0108888180000000F1120B2
:1057600020110E0000380808C83808000000003F6B
:10577000000000000070880808887000001C2221CA
:1057800021221C0000E010080810E0000000312277
:1057900022110F00000000C0C00000000000003017
:1057A0003000000000000080000000000000806069
:1057B00000000000000080402010080000010204EA
:1057C00008102000404040404040400004040404D1
:1057D000040404000008102040800000002010088D
:1057E00004020100007048080808F00000000030C2
:1057F00036010000C030C828E810E0000718272450
:1058000023140B000000C038E0000000203C2302FD
:105810000227382008F8888888700000203F202060
:1058200020110E00C0300808080838000718202092
:105830002010080008F808080810E000203F202089
:1058400020100F0008F88888E8081000203F20206A
:105850002320180008F88888E8081000203F20005E
:1058600003000000C0300808083800000718202096
:10587000221E020008F808000008F808203F210155
:1058800001213F20000808F8080800000020203F00
:105890002020000000000808F8080800C080808070
:1058A0007F00000008F888C028180800203F200169
:1058B0002638200008F8080000000000203F2020C3
:1058C0002020300008F8F800F8F80800203F003FDA
:1058D000003F200008F830C00008F808203F2000F2
:1058E00007183F00E01008080810E0000F10202003
:1058F00020100F0008F808080808F000203F2101D8
:1059000001010000E01008080810E0000F1824242E
:1059100038504F0008F8888888887000203F2000A1
:10592000030C302000708808080838000038202157
:1059300021221C00180808F8080818000000203F61
:105940002000000008F808000008F808001F2020C8
:1059500020201F000878880000C838080000073899
:105960000E010000F80800F80008F800033C0700EA
:10597000073C0300081868808068180820302C0352
:10598000032C30200838C800C83808000000203F29
:105990002000000010080808C83808002038262118
:1059A00020201800000000FE020202000000007F1C
:1059B00040404000000C30C000000000000000012A
:1059C0000638C00000020202FE0000000040404015
:1059D0007F0000000000040202020400000000003A
:1059E00000000000000000000000000080808080B7
:1059F000808080800002020400000000000000009F
:105A00000000000000008080808000000019242237
:105A100022223F2008F8008080000000003F112073
:105A200020110E000000008080800000000E112078
:105A300020201100000000808088F800000E112056
:105A400020103F200000808080800000001F222264
:105A500022221300008080F0888888180020203FD0
:105A6000202000000000808080808000006B9494E3
:105A70009493600008F8008080800000203F21009F
:105A800000203F2000809898000000000020203F68
:105A900020200000000000809898000000C0808056
:105AA000807F000008F8000080808000203F2402F2
:105AB0002D302000000808F8000000000020203FE2
:105AC000202000008080808080808000203F200097
:105AD0003F20003F8080008080800000203F210028
